{
  "abi": [
    {
      "inputs": [],
      "name": "test2Func1",
      "outputs": [],
      "stateMutability": "nonpayable",
      "type": "function"
    },
    {
      "inputs": [],
      "name": "test2Func10",
      "outputs": [],
      "stateMutability": "nonpayable",
      "type": "function"
    },
    {
      "inputs": [],
      "name": "test2Func11",
      "outputs": [],
      "stateMutability": "nonpayable",
      "type": "function"
    },
    {
      "inputs": [],
      "name": "test2Func12",
      "outputs": [],
      "stateMutability": "nonpayable",
      "type": "function"
    },
    {
      "inputs": [],
      "name": "test2Func13",
      "outputs": [],
      "stateMutability": "nonpayable",
      "type": "function"
    },
    {
      "inputs": [],
      "name": "test2Func14",
      "outputs": [],
      "stateMutability": "nonpayable",
      "type": "function"
    },
    {
      "inputs": [],
      "name": "test2Func15",
      "outputs": [],
      "stateMutability": "nonpayable",
      "type": "function"
    },
    {
      "inputs": [],
      "name": "test2Func16",
      "outputs": [],
      "stateMutability": "nonpayable",
      "type": "function"
    },
    {
      "inputs": [],
      "name": "test2Func17",
      "outputs": [],
      "stateMutability": "nonpayable",
      "type": "function"
    },
    {
      "inputs": [],
      "name": "test2Func18",
      "outputs": [],
      "stateMutability": "nonpayable",
      "type": "function"
    },
    {
      "inputs": [],
      "name": "test2Func19",
      "outputs": [],
      "stateMutability": "nonpayable",
      "type": "function"
    },
    {
      "inputs": [],
      "name": "test2Func2",
      "outputs": [],
      "stateMutability": "nonpayable",
      "type": "function"
    },
    {
      "inputs": [],
      "name": "test2Func20",
      "outputs": [],
      "stateMutability": "nonpayable",
      "type": "function"
    },
    {
      "inputs": [],
      "name": "test2Func3",
      "outputs": [],
      "stateMutability": "nonpayable",
      "type": "function"
    },
    {
      "inputs": [],
      "name": "test2Func4",
      "outputs": [],
      "stateMutability": "nonpayable",
      "type": "function"
    },
    {
      "inputs": [],
      "name": "test2Func5",
      "outputs": [],
      "stateMutability": "nonpayable",
      "type": "function"
    },
    {
      "inputs": [],
      "name": "test2Func6",
      "outputs": [],
      "stateMutability": "nonpayable",
      "type": "function"
    },
    {
      "inputs": [],
      "name": "test2Func7",
      "outputs": [],
      "stateMutability": "nonpayable",
      "type": "function"
    },
    {
      "inputs": [],
      "name": "test2Func8",
      "outputs": [],
      "stateMutability": "nonpayable",
      "type": "function"
    },
    {
      "inputs": [],
      "name": "test2Func9",
      "outputs": [],
      "stateMutability": "nonpayable",
      "type": "function"
    }
  ],
  "bytecode": {
    "object": "0x608060405234801561001057600080fd5b50610169806100206000396000f3fe608060405234801561001057600080fd5b506004361061012c5760003560e01c80638ee8be30116100ad578063d2f0c73e11610071578063d2f0c73e14610131578063e5f687b214610131578063e7de23a414610131578063ea36b55814610131578063ef3f4d781461013157600080fd5b80638ee8be301461013157806391d0396b14610131578063c670641d14610131578063ca5fa5c014610131578063caae8f231461013157600080fd5b80632e463958116100f45780632e463958146101315780635fd6312b146101315780636dc16b0114610131578063792a8e2e14610131578063884280a61461013157600080fd5b806303feeeae146101315780630c103a93146101315780630e4cd7fc14610131578063148843091461013157806317fd06e714610131575b600080fd5b00fea26469706673582212200ed72f0d36e169c39d134c5ce3c46370e5f1377ae1ff8429c1c4377cbdff712264736f6c63430008130033",
    "linkReferences": {}
  },
  "methodIdentifiers": {
    "test2Func1()": "ea36b558",
    "test2Func10()": "8ee8be30",
    "test2Func11()": "884280a6",
    "test2Func12()": "ca5fa5c0",
    "test2Func13()": "6dc16b01",
    "test2Func14()": "91d0396b",
    "test2Func15()": "03feeeae",
    "test2Func16()": "2e463958",
    "test2Func17()": "14884309",
    "test2Func18()": "0c103a93",
    "test2Func19()": "5fd6312b",
    "test2Func2()": "e7de23a4",
    "test2Func20()": "792a8e2e",
    "test2Func3()": "0e4cd7fc",
    "test2Func4()": "c670641d",
    "test2Func5()": "d2f0c73e",
    "test2Func6()": "17fd06e7",
    "test2Func7()": "ef3f4d78",
    "test2Func8()": "e5f687b2",
    "test2Func9()": "caae8f23"
  },
  "id": 5
}