{
  "abi": [
    {
      "anonymous": false,
      "inputs": [
        {
          "indexed": false,
          "internalType": "address",
          "name": "something",
          "type": "address"
        }
      ],
      "name": "TestEvent",
      "type": "event"
    },
    {
      "inputs": [
        {
          "internalType": "bytes4",
          "name": "_interfaceID",
          "type": "bytes4"
        }
      ],
      "name": "supportsInterface",
      "outputs": [
        {
          "internalType": "bool",
          "name": "",
          "type": "bool"
        }
      ],
      "stateMutability": "view",
      "type": "function"
    },
    {
      "inputs": [],
      "name": "test1Func1",
      "outputs": [],
      "stateMutability": "nonpayable",
      "type": "function"
    },
    {
      "inputs": [],
      "name": "test1Func10",
      "outputs": [],
      "stateMutability": "nonpayable",
      "type": "function"
    },
    {
      "inputs": [],
      "name": "test1Func11",
      "outputs": [],
      "stateMutability": "nonpayable",
      "type": "function"
    },
    {
      "inputs": [],
      "name": "test1Func12",
      "outputs": [],
      "stateMutability": "nonpayable",
      "type": "function"
    },
    {
      "inputs": [],
      "name": "test1Func13",
      "outputs": [],
      "stateMutability": "nonpayable",
      "type": "function"
    },
    {
      "inputs": [],
      "name": "test1Func14",
      "outputs": [],
      "stateMutability": "nonpayable",
      "type": "function"
    },
    {
      "inputs": [],
      "name": "test1Func15",
      "outputs": [],
      "stateMutability": "nonpayable",
      "type": "function"
    },
    {
      "inputs": [],
      "name": "test1Func16",
      "outputs": [],
      "stateMutability": "nonpayable",
      "type": "function"
    },
    {
      "inputs": [],
      "name": "test1Func17",
      "outputs": [],
      "stateMutability": "nonpayable",
      "type": "function"
    },
    {
      "inputs": [],
      "name": "test1Func18",
      "outputs": [],
      "stateMutability": "nonpayable",
      "type": "function"
    },
    {
      "inputs": [],
      "name": "test1Func19",
      "outputs": [],
      "stateMutability": "nonpayable",
      "type": "function"
    },
    {
      "inputs": [],
      "name": "test1Func2",
      "outputs": [],
      "stateMutability": "nonpayable",
      "type": "function"
    },
    {
      "inputs": [],
      "name": "test1Func20",
      "outputs": [],
      "stateMutability": "nonpayable",
      "type": "function"
    },
    {
      "inputs": [],
      "name": "test1Func3",
      "outputs": [],
      "stateMutability": "nonpayable",
      "type": "function"
    },
    {
      "inputs": [],
      "name": "test1Func4",
      "outputs": [],
      "stateMutability": "nonpayable",
      "type": "function"
    },
    {
      "inputs": [],
      "name": "test1Func5",
      "outputs": [],
      "stateMutability": "nonpayable",
      "type": "function"
    },
    {
      "inputs": [],
      "name": "test1Func6",
      "outputs": [],
      "stateMutability": "nonpayable",
      "type": "function"
    },
    {
      "inputs": [],
      "name": "test1Func7",
      "outputs": [],
      "stateMutability": "nonpayable",
      "type": "function"
    },
    {
      "inputs": [],
      "name": "test1Func8",
      "outputs": [],
      "stateMutability": "nonpayable",
      "type": "function"
    },
    {
      "inputs": [],
      "name": "test1Func9",
      "outputs": [],
      "stateMutability": "nonpayable",
      "type": "function"
    }
  ],
  "bytecode": {
    "object": "0x608060405234801561001057600080fd5b506101cd806100206000396000f3fe608060405234801561001057600080fd5b50600436106101375760003560e01c806351b68a4d116100b85780639abf97aa1161007c5780639abf97aa14610164578063b0e8fcc714610164578063cbb835f614610164578063cd0bae0914610164578063cf3bbe1814610164578063db32da151461016457600080fd5b806351b68a4d1461016457806371a99d6f1461016457806377e9d0d61461016457806381b5207d1461016457806387952d221461016457600080fd5b806324c1d5a7116100ff57806324c1d5a714610164578063292c460d146101645780632cb83248146101645780634484b3b91461016457806350eb3f431461016457600080fd5b806301ffc9a71461013c5780630716c2ae14610164578063110460471461016457806319c841ab1461016457806319e3b53314610164575b600080fd5b61015061014a366004610166565b50600090565b604051901515815260200160405180910390f35b005b60006020828403121561017857600080fd5b81356001600160e01b03198116811461019057600080fd5b939250505056fea26469706673582212209c6a4454ea4502ce812e163cbd74f2670b5b8309f9fe20f2bb314c61a86e88e964736f6c63430008130033",
    "linkReferences": {}
  },
  "methodIdentifiers": {
    "supportsInterface(bytes4)": "01ffc9a7",
    "test1Func1()": "19e3b533",
    "test1Func10()": "87952d22",
    "test1Func11()": "50eb3f43",
    "test1Func12()": "81b5207d",
    "test1Func13()": "19c841ab",
    "test1Func14()": "51b68a4d",
    "test1Func15()": "2cb83248",
    "test1Func16()": "77e9d0d6",
    "test1Func17()": "4484b3b9",
    "test1Func18()": "9abf97aa",
    "test1Func19()": "292c460d",
    "test1Func2()": "0716c2ae",
    "test1Func20()": "b0e8fcc7",
    "test1Func3()": "11046047",
    "test1Func4()": "cf3bbe18",
    "test1Func5()": "24c1d5a7",
    "test1Func6()": "cbb835f6",
    "test1Func7()": "71a99d6f",
    "test1Func8()": "db32da15",
    "test1Func9()": "cd0bae09"
  },
  "id": 4
}