{
  "abi": [
    {
      "inputs": [
        {
          "internalType": "string",
          "name": "_item",
          "type": "string"
        },
        {
          "internalType": "uint256",
          "name": "_passcode",
          "type": "uint256"
        }
      ],
      "name": "addItemPasscode",
      "outputs": [],
      "stateMutability": "nonpayable",
      "type": "function"
    },
    {
      "inputs": [
        {
          "internalType": "string",
          "name": "_item",
          "type": "string"
        },
        {
          "internalType": "address",
          "name": "_token",
          "type": "address"
        },
        {
          "internalType": "uint256",
          "name": "_amount",
          "type": "uint256"
        }
      ],
      "name": "buy",
      "outputs": [
        {
          "internalType": "bool",
          "name": "success",
          "type": "bool"
        }
      ],
      "stateMutability": "nonpayable",
      "type": "function"
    },
    {
      "inputs": [
        {
          "internalType": "address",
          "name": "_admin",
          "type": "address"
        }
      ],
      "name": "setAdmin",
      "outputs": [
        {
          "internalType": "address",
          "name": "",
          "type": "address"
        }
      ],
      "stateMutability": "nonpayable",
      "type": "function"
    },
    {
      "inputs": [
        {
          "internalType": "address",
          "name": "_token",
          "type": "address"
        },
        {
          "internalType": "uint16",
          "name": "_decimal",
          "type": "uint16"
        }
      ],
      "name": "setTokens",
      "outputs": [],
      "stateMutability": "nonpayable",
      "type": "function"
    },
    {
      "inputs": [
        {
          "internalType": "address",
          "name": "_to",
          "type": "address"
        },
        {
          "internalType": "uint256",
          "name": "_amount",
          "type": "uint256"
        }
      ],
      "name": "withdrawEth",
      "outputs": [],
      "stateMutability": "nonpayable",
      "type": "function"
    },
    {
      "inputs": [
        {
          "internalType": "address",
          "name": "_token",
          "type": "address"
        },
        {
          "internalType": "address",
          "name": "_to",
          "type": "address"
        },
        {
          "internalType": "uint256",
          "name": "_amount",
          "type": "uint256"
        }
      ],
      "name": "withdrawToken",
      "outputs": [],
      "stateMutability": "nonpayable",
      "type": "function"
    }
  ],
  "bytecode": {
    "object": "0x608060405234801561001057600080fd5b50610b6a806100206000396000f3fe608060405234801561001057600080fd5b50600436106100625760003560e01c806301e33667146100675780631b9a91a41461007c578063704b6c021461008f5780637782ec50146100fb578063a5b69fa41461011e578063bcbe6dc814610131575b600080fd5b61007a61007536600461079a565b610144565b005b61007a61008a3660046107d6565b6102b5565b6100de61009d366004610800565b7fc8fcad8db84d3cc18b4c41d551ea0ee66dd599cde068d998e57d5e09332c132080546001600160a01b0319166001600160a01b0392909216918217905590565b6040516001600160a01b0390911681526020015b60405180910390f35b61010e6101093660046108c5565b6103fd565b60405190151581526020016100f2565b61007a61012c36600461090c565b61041d565b61007a61013f366004610951565b61049e565b600080516020610b158339815191524782111561019d5760405162461bcd60e51b8152602060048201526012602482015271496e73756666696369656e742066756e647360701b60448201526064015b60405180910390fd5b6001600160a01b0383166101ec5760405162461bcd60e51b81526020600482015260166024820152754552524f523a20496e76616c6964206164647265737360501b6044820152606401610194565b60048101546001600160a01b031633146102185760405162461bcd60e51b81526004016101949061098f565b60405163a9059cbb60e01b81526001600160a01b038481166004830152602482018490526000919086169063a9059cbb906044016020604051808303816000875af115801561026b573d6000803e3d6000fd5b505050506040513d601f19601f8201168201806040525081019061028f91906109df565b9050806102ae5760405162461bcd60e51b815260040161019490610a01565b5050505050565b600080516020610b15833981519152478211156103095760405162461bcd60e51b8152602060048201526012602482015271496e73756666696369656e742066756e647360701b6044820152606401610194565b6001600160a01b0383166103585760405162461bcd60e51b81526020600482015260166024820152754552524f523a20496e76616c6964206164647265737360501b6044820152606401610194565b60048101546001600160a01b031633146103845760405162461bcd60e51b81526004016101949061098f565b6000836001600160a01b03168360405160006040518083038185875af1925050503d80600081146103d1576040519150601f19603f3d011682016040523d82523d6000602084013e6103d6565b606091505b50509050806103f75760405162461bcd60e51b815260040161019490610a01565b50505050565b6000610409838361052a565b50600161041584610724565b509392505050565b7fc8fcad8db84d3cc18b4c41d551ea0ee66dd599cde068d998e57d5e09332c132054600080516020610b15833981519152906001600160a01b031633146104765760405162461bcd60e51b815260040161019490610a2c565b8181600701846040516104899190610a7f565b90815260405190819003602001902055505050565b7fc8fcad8db84d3cc18b4c41d551ea0ee66dd599cde068d998e57d5e09332c132054600080516020610b15833981519152906001600160a01b031633146104f75760405162461bcd60e51b815260040161019490610a2c565b6001600160a01b0392909216600090815260089092016020526040909120805461ffff191661ffff909216919091179055565b6000600080516020610b158339815191529050600080816001600160a01b03166330c0b9ec6040518163ffffffff1660e01b8152600401602060405180830381865afa15801561057e573d6000803e3d6000fd5b505050506040513d601f19601f820116820180604052508101906105a29190610aae565b90506000670de0b6b3a76400006105c1836730927f74c9de0000610ac7565b6105cb9190610af2565b6001600160a01b038716600090815260088601602052604081205491925061ffff909116900361063d5760405162461bcd60e51b815260206004820152601d60248201527f4f6e6c79205553445420697320616363657074656420666f72206e6f770000006044820152606401610194565b808510156106825760405162461bcd60e51b8152602060048201526012602482015271283934b1b29034b99019971a9032ba3432b960711b6044820152606401610194565b6040516323b872dd60e01b8152336004820152306024820152604481018690526000906001600160a01b038816906323b872dd906064016020604051808303816000875af11580156106d8573d6000803e3d6000fd5b505050506040513d601f19601f820116820180604052508101906106fc91906109df565b90508061071b5760405162461bcd60e51b815260040161019490610a01565b50505050505050565b604051600090600080516020610b15833981519152907fc8fcad8db84d3cc18b4c41d551ea0ee66dd599cde068d998e57d5e09332c132390610767908590610a7f565b908152602001604051809103902054915050919050565b80356001600160a01b038116811461079557600080fd5b919050565b6000806000606084860312156107af57600080fd5b6107b88461077e565b92506107c66020850161077e565b9150604084013590509250925092565b600080604083850312156107e957600080fd5b6107f28361077e565b946020939093013593505050565b60006020828403121561081257600080fd5b61081b8261077e565b9392505050565b634e487b7160e01b600052604160045260246000fd5b600082601f83011261084957600080fd5b813567ffffffffffffffff8082111561086457610864610822565b604051601f8301601f19908116603f0116810190828211818310171561088c5761088c610822565b816040528381528660208588010111156108a557600080fd5b836020870160208301376000602085830101528094505050505092915050565b6000806000606084860312156108da57600080fd5b833567ffffffffffffffff8111156108f157600080fd5b6108fd86828701610838565b9350506107c66020850161077e565b6000806040838503121561091f57600080fd5b823567ffffffffffffffff81111561093657600080fd5b61094285828601610838565b95602094909401359450505050565b6000806040838503121561096457600080fd5b61096d8361077e565b9150602083013561ffff8116811461098457600080fd5b809150509250929050565b60208082526030908201527f556e617574686f72697a6564204f7065726174696f6e3a204f6e6c792041646d60408201526f1a5b881a5cc8185d5d1a1bdc9a5e995960821b606082015260800190565b6000602082840312156109f157600080fd5b8151801515811461081b57600080fd5b6020808252601190820152705769746864726177204661696c2e2e2e2160781b604082015260600190565b60208082526033908201527f556e617574686f72697a6564204f7065726174696f6e3a204f6e6c792061646d60408201527234b71034b99030baba3437b934bd32b217171760691b606082015260800190565b6000825160005b81811015610aa05760208186018101518583015201610a86565b506000920191825250919050565b600060208284031215610ac057600080fd5b5051919050565b8082028115828204841417610aec57634e487b7160e01b600052601160045260246000fd5b92915050565b600082610b0f57634e487b7160e01b600052601260045260246000fd5b50049056fec8fcad8db84d3cc18b4c41d551ea0ee66dd599cde068d998e57d5e09332c131ca264697066735822122081087c10103bd1fb3e7ee564a4e28bcd1868184880bb667b773c64ce34f2344664736f6c63430008130033",
    "linkReferences": {}
  },
  "methodIdentifiers": {
    "addItemPasscode(string,uint256)": "a5b69fa4",
    "buy(string,address,uint256)": "7782ec50",
    "setAdmin(address)": "704b6c02",
    "setTokens(address,uint16)": "bcbe6dc8",
    "withdrawEth(address,uint256)": "1b9a91a4",
    "withdrawToken(address,address,uint256)": "01e33667"
  },
  "id": 4
}