{
  "abi": [
    {
      "inputs": [
        {
          "internalType": "address",
          "name": "_Aggregator",
          "type": "address"
        },
        {
          "internalType": "string",
          "name": "_tokenSymbol",
          "type": "string"
        }
      ],
      "name": "addAggregators",
      "outputs": [],
      "stateMutability": "nonpayable",
      "type": "function"
    },
    {
      "inputs": [],
      "name": "getLatestEthPrice",
      "outputs": [
        {
          "internalType": "int256",
          "name": "",
          "type": "int256"
        }
      ],
      "stateMutability": "view",
      "type": "function"
    }
  ],
  "bytecode": {
    "object": "0x608060405234801561001057600080fd5b50610538806100206000396000f3fe608060405234801561001057600080fd5b50600436106100365760003560e01c806330c0b9ec1461003b5780638b17624a14610055575b600080fd5b61004361006a565b60405190815260200160405180910390f35b610068610063366004610230565b61013f565b005b7fc8fcad8db84d3cc18b4c41d551ea0ee66dd599cde068d998e57d5e09332c13265460408051633fabe5a360e21b815290516000927fc8fcad8db84d3cc18b4c41d551ea0ee66dd599cde068d998e57d5e09332c131c9284926001600160a01b039092169163feaf968c9160048082019260a0929091908290030181865afa1580156100fa573d6000803e3d6000fd5b505050506040513d601f19601f8201168201806040525081019061011e919061031f565b505050915050670de0b6b3a764000081610138919061036f565b9250505090565b7fc8fcad8db84d3cc18b4c41d551ea0ee66dd599cde068d998e57d5e09332c1320547fc8fcad8db84d3cc18b4c41d551ea0ee66dd599cde068d998e57d5e09332c131c906001600160a01b031633146101f05760405162461bcd60e51b815260206004820152602960248201527f556e617574686f72697a6564204f7065726174696f6e3a204f4e4c592041444d604482015268494e2041434345535360b81b606482015260840160405180910390fd5b6001600160a01b038316600090815260098201602052604090206102148382610442565b50505050565b634e487b7160e01b600052604160045260246000fd5b6000806040838503121561024357600080fd5b82356001600160a01b038116811461025a57600080fd5b9150602083013567ffffffffffffffff8082111561027757600080fd5b818501915085601f83011261028b57600080fd5b81358181111561029d5761029d61021a565b604051601f8201601f19908116603f011681019083821181831017156102c5576102c561021a565b816040528281528860208487010111156102de57600080fd5b8260208601602083013760006020848301015280955050505050509250929050565b805169ffffffffffffffffffff8116811461031a57600080fd5b919050565b600080600080600060a0868803121561033757600080fd5b61034086610300565b945060208601519350604086015192506060860151915061036360808701610300565b90509295509295909350565b60008261038c57634e487b7160e01b600052601260045260246000fd5b600160ff1b8214600019841416156103b457634e487b7160e01b600052601160045260246000fd5b500590565b600181811c908216806103cd57607f821691505b6020821081036103ed57634e487b7160e01b600052602260045260246000fd5b50919050565b601f82111561043d57600081815260208120601f850160051c8101602086101561041a5750805b601f850160051c820191505b8181101561043957828155600101610426565b5050505b505050565b815167ffffffffffffffff81111561045c5761045c61021a565b6104708161046a84546103b9565b846103f3565b602080601f8311600181146104a5576000841561048d5750858301515b600019600386901b1c1916600185901b178555610439565b600085815260208120601f198616915b828110156104d4578886015182559484019460019091019084016104b5565b50858210156104f25787850151600019600388901b60f8161c191681555b5050505050600190811b0190555056fea26469706673582212203742065e793b13cabcd0e37800dc9702d0439eeee862db99fd388873993afc2864736f6c63430008130033",
    "linkReferences": {}
  },
  "methodIdentifiers": {
    "addAggregators(address,string)": "8b17624a",
    "getLatestEthPrice()": "30c0b9ec"
  },
  "id": 5
}